{
  "_format": "hh-sol-artifact-1",
  "contractName": "Todo",
  "sourceName": "contracts/Todo.sol",
  "abi": [
    {
      "anonymous": false,
      "inputs": [
        {
          "indexed": false,
          "internalType": "uint256",
          "name": "id",
          "type": "uint256"
        },
        {
          "indexed": false,
          "internalType": "uint256",
          "name": "date",
          "type": "uint256"
        },
        {
          "indexed": false,
          "internalType": "string",
          "name": "content",
          "type": "string"
        },
        {
          "indexed": false,
          "internalType": "string",
          "name": "author",
          "type": "string"
        },
        {
          "indexed": false,
          "internalType": "string",
          "name": "password",
          "type": "string"
        },
        {
          "indexed": false,
          "internalType": "bool",
          "name": "done",
          "type": "bool"
        }
      ],
      "name": "TaskCreated",
      "type": "event"
    },
    {
      "anonymous": false,
      "inputs": [
        {
          "indexed": false,
          "internalType": "uint256",
          "name": "id",
          "type": "uint256"
        },
        {
          "indexed": false,
          "internalType": "bool",
          "name": "done",
          "type": "bool"
        },
        {
          "indexed": false,
          "internalType": "uint256",
          "name": "date",
          "type": "uint256"
        }
      ],
      "name": "TaskStatusToggled",
      "type": "event"
    },
    {
      "inputs": [
        {
          "internalType": "string",
          "name": "_content",
          "type": "string"
        },
        {
          "internalType": "string",
          "name": "_author",
          "type": "string"
        },
        {
          "internalType": "string",
          "name": "_password",
          "type": "string"
        }
      ],
      "name": "createTask",
      "outputs": [],
      "stateMutability": "nonpayable",
      "type": "function"
    },
    {
      "inputs": [],
      "name": "getTasks",
      "outputs": [
        {
          "components": [
            {
              "internalType": "uint256",
              "name": "id",
              "type": "uint256"
            },
            {
              "internalType": "uint256",
              "name": "date",
              "type": "uint256"
            },
            {
              "internalType": "string",
              "name": "content",
              "type": "string"
            },
            {
              "internalType": "string",
              "name": "author",
              "type": "string"
            },
            {
              "internalType": "string",
              "name": "password",
              "type": "string"
            },
            {
              "internalType": "bool",
              "name": "done",
              "type": "bool"
            },
            {
              "internalType": "uint256",
              "name": "dateComplete",
              "type": "uint256"
            }
          ],
          "internalType": "struct Todo.Task[]",
          "name": "",
          "type": "tuple[]"
        }
      ],
      "stateMutability": "view",
      "type": "function"
    },
    {
      "inputs": [
        {
          "internalType": "uint256",
          "name": "",
          "type": "uint256"
        }
      ],
      "name": "tasks",
      "outputs": [
        {
          "internalType": "uint256",
          "name": "id",
          "type": "uint256"
        },
        {
          "internalType": "uint256",
          "name": "date",
          "type": "uint256"
        },
        {
          "internalType": "string",
          "name": "content",
          "type": "string"
        },
        {
          "internalType": "string",
          "name": "author",
          "type": "string"
        },
        {
          "internalType": "string",
          "name": "password",
          "type": "string"
        },
        {
          "internalType": "bool",
          "name": "done",
          "type": "bool"
        },
        {
          "internalType": "uint256",
          "name": "dateComplete",
          "type": "uint256"
        }
      ],
      "stateMutability": "view",
      "type": "function"
    },
    {
      "inputs": [
        {
          "internalType": "uint256",
          "name": "id",
          "type": "uint256"
        }
      ],
      "name": "toggleDone",
      "outputs": [],
      "stateMutability": "nonpayable",
      "type": "function"
    }
  ],
  "bytecode": "0x608060405234801561001057600080fd5b50611099806100206000396000f3fe608060405234801561001057600080fd5b506004361061004c5760003560e01c806304a87e38146100515780638d9776721461006f578063d2344f0a146100a5578063d81ef739146100c1575b600080fd5b6100596100dd565b6040516100669190610aeb565b60405180910390f35b61008960048036038101906100849190610b4d565b61038b565b60405161009c9796959493929190610be2565b60405180910390f35b6100bf60048036038101906100ba9190610d9b565b610572565b005b6100db60048036038101906100d69190610b4d565b6106b8565b005b6060600060015467ffffffffffffffff8111156100fd576100fc610c70565b5b60405190808252806020026020018201604052801561013657816020015b6101236107d0565b81526020019060019003908161011b5790505b50905060005b600154811015610383576000808281526020019081526020016000206040518060e0016040529081600082015481526020016001820154815260200160028201805461018790610e71565b80601f01602080910402602001604051908101604052809291908181526020018280546101b390610e71565b80156102005780601f106101d557610100808354040283529160200191610200565b820191906000526020600020905b8154815290600101906020018083116101e357829003601f168201915b5050505050815260200160038201805461021990610e71565b80601f016020809104026020016040519081016040528092919081815260200182805461024590610e71565b80156102925780601f1061026757610100808354040283529160200191610292565b820191906000526020600020905b81548152906001019060200180831161027557829003601f168201915b505050505081526020016004820180546102ab90610e71565b80601f01602080910402602001604051908101604052809291908181526020018280546102d790610e71565b80156103245780601f106102f957610100808354040283529160200191610324565b820191906000526020600020905b81548152906001019060200180831161030757829003601f168201915b505050505081526020016005820160009054906101000a900460ff1615151515815260200160068201548152505082828151811061036557610364610ea3565b5b6020026020010181905250808061037b90610f01565b91505061013c565b508091505090565b60006020528060005260406000206000915090508060000154908060010154908060020180546103ba90610e71565b80601f01602080910402602001604051908101604052809291908181526020018280546103e690610e71565b80156104335780601f1061040857610100808354040283529160200191610433565b820191906000526020600020905b81548152906001019060200180831161041657829003601f168201915b50505050509080600301805461044890610e71565b80601f016020809104026020016040519081016040528092919081815260200182805461047490610e71565b80156104c15780601f10610496576101008083540402835291602001916104c1565b820191906000526020600020905b8154815290600101906020018083116104a457829003601f168201915b5050505050908060040180546104d690610e71565b80601f016020809104026020016040519081016040528092919081815260200182805461050290610e71565b801561054f5780601f106105245761010080835404028352916020019161054f565b820191906000526020600020905b81548152906001019060200180831161053257829003601f168201915b5050505050908060050160009054906101000a900460ff16908060060154905087565b6040518060e00160405280600154815260200142815260200184815260200183815260200182815260200160001515815260200160008152506000806001548152602001908152602001600020600082015181600001556020820151816001015560408201518160020190805190602001906105ef92919061080f565b50606082015181600301908051906020019061060c92919061080f565b50608082015181600401908051906020019061062992919061080f565b5060a08201518160050160006101000a81548160ff02191690831515021790555060c082015181600601559050507f72c61ab6fc1b9c5fdcc7a46fa3d5b65d38989bfc5388ac6ad50867912dc12cc160015442858585600060405161069396959493929190610f4a565b60405180910390a1600160008154809291906106ae90610f01565b9190505550505050565b6000806000838152602001908152602001600020600101541415610711576040517f08c379a00000000000000000000000000000000000000000000000000000000081526004016107089061100c565b60405180910390fd5b600080600083815260200190815260200160002090508060050160009054906101000a900460ff16158160050160006101000a81548160ff0219169083151502179055508060050160009054906101000a900460ff16610772576000610774565b425b81600601819055507fcb1ceae718a6ae11d5daf00e292e318717e0acf2d326ed670df0e5ff67ba5000828260050160009054906101000a900460ff1683600601546040516107c49392919061102c565b60405180910390a15050565b6040518060e001604052806000815260200160008152602001606081526020016060815260200160608152602001600015158152602001600081525090565b82805461081b90610e71565b90600052602060002090601f01602090048101928261083d5760008555610884565b82601f1061085657805160ff1916838001178555610884565b82800160010185558215610884579182015b82811115610883578251825591602001919060010190610868565b5b5090506108919190610895565b5090565b5b808211156108ae576000816000905550600101610896565b5090565b600081519050919050565b600082825260208201905092915050565b6000819050602082019050919050565b6000819050919050565b6108f1816108de565b82525050565b600081519050919050565b600082825260208201905092915050565b60005b83811015610931578082015181840152602081019050610916565b83811115610940576000848401525b50505050565b6000601f19601f8301169050919050565b6000610962826108f7565b61096c8185610902565b935061097c818560208601610913565b61098581610946565b840191505092915050565b60008115159050919050565b6109a581610990565b82525050565b600060e0830160008301516109c360008601826108e8565b5060208301516109d660208601826108e8565b50604083015184820360408601526109ee8282610957565b91505060608301518482036060860152610a088282610957565b91505060808301518482036080860152610a228282610957565b91505060a0830151610a3760a086018261099c565b5060c0830151610a4a60c08601826108e8565b508091505092915050565b6000610a6183836109ab565b905092915050565b6000602082019050919050565b6000610a81826108b2565b610a8b81856108bd565b935083602082028501610a9d856108ce565b8060005b85811015610ad95784840389528151610aba8582610a55565b9450610ac583610a69565b925060208a01995050600181019050610aa1565b50829750879550505050505092915050565b60006020820190508181036000830152610b058184610a76565b905092915050565b6000604051905090565b600080fd5b600080fd5b610b2a816108de565b8114610b3557600080fd5b50565b600081359050610b4781610b21565b92915050565b600060208284031215610b6357610b62610b17565b5b6000610b7184828501610b38565b91505092915050565b610b83816108de565b82525050565b600082825260208201905092915050565b6000610ba5826108f7565b610baf8185610b89565b9350610bbf818560208601610913565b610bc881610946565b840191505092915050565b610bdc81610990565b82525050565b600060e082019050610bf7600083018a610b7a565b610c046020830189610b7a565b8181036040830152610c168188610b9a565b90508181036060830152610c2a8187610b9a565b90508181036080830152610c3e8186610b9a565b9050610c4d60a0830185610bd3565b610c5a60c0830184610b7a565b98975050505050505050565b600080fd5b600080fd5b7f4e487b7100000000000000000000000000000000000000000000000000000000600052604160045260246000fd5b610ca882610946565b810181811067ffffffffffffffff82111715610cc757610cc6610c70565b5b80604052505050565b6000610cda610b0d565b9050610ce68282610c9f565b919050565b600067ffffffffffffffff821115610d0657610d05610c70565b5b610d0f82610946565b9050602081019050919050565b82818337600083830152505050565b6000610d3e610d3984610ceb565b610cd0565b905082815260208101848484011115610d5a57610d59610c6b565b5b610d65848285610d1c565b509392505050565b600082601f830112610d8257610d81610c66565b5b8135610d92848260208601610d2b565b91505092915050565b600080600060608486031215610db457610db3610b17565b5b600084013567ffffffffffffffff811115610dd257610dd1610b1c565b5b610dde86828701610d6d565b935050602084013567ffffffffffffffff811115610dff57610dfe610b1c565b5b610e0b86828701610d6d565b925050604084013567ffffffffffffffff811115610e2c57610e2b610b1c565b5b610e3886828701610d6d565b9150509250925092565b7f4e487b7100000000000000000000000000000000000000000000000000000000600052602260045260246000fd5b60006002820490506001821680610e8957607f821691505b60208210811415610e9d57610e9c610e42565b5b50919050565b7f4e487b7100000000000000000000000000000000000000000000000000000000600052603260045260246000fd5b7f4e487b7100000000000000000000000000000000000000000000000000000000600052601160045260246000fd5b6000610f0c826108de565b91507fffffffffffffffffffffffffffffffffffffffffffffffffffffffffffffffff821415610f3f57610f3e610ed2565b5b600182019050919050565b600060c082019050610f5f6000830189610b7a565b610f6c6020830188610b7a565b8181036040830152610f7e8187610b9a565b90508181036060830152610f928186610b9a565b90508181036080830152610fa68185610b9a565b9050610fb560a0830184610bd3565b979650505050505050565b7f7461736b20646f6573206e6f7420657869737400000000000000000000000000600082015250565b6000610ff6601383610b89565b915061100182610fc0565b602082019050919050565b6000602082019050818103600083015261102581610fe9565b9050919050565b60006060820190506110416000830186610b7a565b61104e6020830185610bd3565b61105b6040830184610b7a565b94935050505056fea2646970667358221220f1b108c0490378abbaa6c969354a19a78557d5ce61c958472f5b396240b8d59b64736f6c63430008090033",
  "linkReferences": {},
  "deployedLinkReferences": {}
}